:100000000C9434000C9451000C9451000C94510049
:100010000C9451000C94D1000C9451000C9451009C
:100020000C9451000C9451000C9451000C9451000C
:100030000C9451000C9451000C9451000C945100FC
:100040000C9451000C9451000C9451000C945100EC
:100050000C9451000C9451000C9451000C945100DC
:100060000C9451000C94510011241FBECFEFD8E026
:10007000DEBFCDBF11E0A0E0B1E0EEECF1E002C0E8
:1000800005900D92A030B107D9F721E0A0E0B1E0D2
:1000900001C01D92A130B207E1F70E946B000C94E1
:1000A000E5000C9400008AB18B7F8AB98BB1846023
:1000B0008BB984B18F6084B985B1807F85B908958B
:1000C000E8E6F0E0808184608083EDE6F0E0808106
:1000D000816080830895F8940E9453000E9460001C
:1000E00010920001789480910001813059F585B11A
:1000F000816085B985B1846085B985B18D7F85B909
:1001000085B1877F85B92FE986E891E0215080404D
:100110009040E1F700C0000085B18E7F85B985B1C0
:100120008B7F85B985B1826085B985B1886085B9D5
:100130002FE986E891E0215080409040E1F700C02F
:100140000000D1CF809100018111CDCF85B18160B8
:1001500085B985B1826085B985B1846085B985B17D
:10016000886085B92FE986E891E021508040904071
:10017000E1F700C0000085B18E7F85B985B18D7F24
:1001800085B985B18B7F85B985B1877F85B92FE921
:1001900086E891E0215080409040E1F700C00000E7
:1001A000A2CF1F920F920FB60F9211248F939F939D
:1001B0009091000181E0891B809300019F918F91B4
:0E01C0000F900FBE0F901F901895F894FFCF70
:00000001FF
