S0140000456A30345F446973706C61792E73726563C8
S11300000C9434000C9451000C9451000C94510045
S11300100C9451000C9451000C9451000C94510018
S11300200C9451000C9451000C9451000C94510008
S11300300C9451000C9451000C9451000C945100F8
S11300400C9451000C9451000C9451000C945100E8
S11300500C9451000C9451000C9451000C945100D8
S11300600C9451000C94510011241FBECFEFD8E022
S1130070DEBFCDBF11E0A0E0B1E0EAE8F2E002C0EB
S113008005900D92AA30B107D9F721E0AAE0B1E0BA
S113009001C01D92AC30B207E1F70E9429010C9413
S11300A043010C94000010920B0184B18C7F84B93D
S11300B083B1836083B98FEF8AB91BB8089583B184
S11300C08170E7E8F3E13197F1F700C0000093B1E4
S11300D09270E7E8F3E13197F1F700C0000088235C
S11300E029F0992319F010920B010895811106C08B
S11300F0992321F081E080930B010895882331F046
S1130100911104C082E080930B010895811105C010
S1130110911103C083E080930B01089523C0E09103
S11301200A01F0E0E050FF4F80818BB92FE38DE0AE
S113013093E0215080409040E1F700C000000E940D
S11301405F0080910B018150833080F080910A011F
S1130150893019F48FEF80930A0180910A018F5F2F
S113016080930A0180910B018823C9F2089526C067
S1130170E0910A01F0E0E050FF4F80818BB92FE35A
S11301808DE093E0215080409040E1F700C00000F2
S11301900E945F0080910B018823A1F0823091F0CE
S11301A0833081F080910A01811103C08AE0809339
S11301B00A0180910A01815080930A0180910B0108
S11301C08130B1F2089524C0E0910A01F0E0E050DA
S11301D0FF4F80818BB92FE58AEE90E0215080405B
S11301E09040E1F700C000000E945F0080910B0185
S11301F0823090F0833081F080910A01893019F4C3
S11302008FEF80930A0180910A018F5F80930A0126
S113021080910B018230C1F2089516C0E0910A0169
S1130220F0E0E050FF4F80818BB92FE38DE093E045
S1130230215080409040E1F700C000000E945F0020
S113024080910B01833020F080910B01833031F3D6
S113025008950E9453000E945F0080910B01813039
S113026049F028F0823049F0833051F0F4CF0E94F5
S11302708E00F1CF0E94B700EECF0E94E300EBCFD7
S10D02800E940D01E8CFF894FFCFAF
S10D028A7E306D79335B5F707F7383
S9030000FC
