S00E000031305F50574D2E7372656362
S11300000C9434000C94A5000C94CB000C94510077
S11300100C9451000C9451000C9451000C94510018
S11300200C9451000C9451000C9451000C94510008
S11300300C9451000C9451000C9451000C945100F8
S11300400C9451000C9451000C9451000C945100E8
S11300500C9451000C9451000C9451000C945100D8
S11300600C9451000C94510011241FBECFEFD8E022
S1130070DEBFCDBF11E0A0E0B1E0E0EEF1E002C0F0
S113008005900D92A030B107D9F721E0A0E0B1E0CE
S113009001C01D92A130B207E1F70E9490000C94B8
S11300A0EE000C9400008AB1837F8AB98BB18C6016
S11300B08BB90895E0E8F0E08081806880838081D6
S11300C08F7B8083808183608083E1E8F0E080819E
S11300D08860808380818F7E808380818B7F808312
S11300E080818D7F808380818160808310928900EC
S11300F0109288000895E9E6F0E080818D7F808386
S113010080818E7F80838DB381608DBB8081877F6A
S1130110808380818B7F80838DB382608DBB0895C3
S1130120F8940E9453000E945A000E947B0084B1FC
S1130130826084B9789484B1826084B987E893E159
S11301400197F1F700C00000F6CF1F920F920FB68F
S11301500F9211242F938F939F93EF93FF9381E03A
S11301608093000180918800909189008C3F934096
S113017040F4E8E8F0E0808191818A599F4F9183AF
S11301808083FF91EF919F918F912F910F900FBEDC
S11301900F901F9018951F920F920FB60F92112473
S11301A08F939F93EF93FF9382E08093000180915C
S11301B0880090918900892B41F0E8E8F0E0808183
S11301C091818656910991838083FF91EF919F914C
S11301D08F910F900FBE0F901F901895F894FFCF3A
S9030000FC
