:100000000C9434000C943E000C943E000C943E0082
:100010000C943E000C943E000C943E000C943E0068
:100020000C943E000C943E000C943E000C943E0058
:100030000C943E000C943E000C943E000C943E0048
:100040000C943E000C943E000C943E000C943E0038
:100050000C943E000C943E000C943E000C943E0028
:100060000C943E000C943E0011241FBECFEFD8E04C
:10007000DEBFCDBF0E9443000C949B000C94000097
:100080008FE18AB908950E94400081E08BB92FE981
:1000900036E841E0215030404040E1F700C0000028
:1000A00082E08BB95FE996E821E051509040204012
:1000B000E1F700C0000094E09BB93FE946E851E059
:1000C000315040405040E1F700C0000028E02BB91B
:1000D0003FE946E851E0315040405040E1F700C070
:1000E000000030E13BB93FE946E851E03150404083
:1000F0005040E1F700C000002BB92FE936E841E09D
:10010000215030404040E1F700C000009BB95FE95A
:1001100096E821E0515090402040E1F700C00000F7
:100120008BB93FE946E851E0315040405040E1F79B
:0A01300000C00000AACFF894FFCF32
:00000001FF
