:100000000C9434000C9451000C9451000C94510049
:100010000C9451000C9451000C9451000C9451001C
:100020000C9451000C9451000C9451000C9451000C
:100030000C9451000C9451000C94AF000C9451009E
:100040000C9451000C9451000C9451000C945100EC
:100050000C9451000C9451000C9451000C945100DC
:100060000C9451000C94510011241FBECFEFD8E026
:10007000DEBFCDBF11E0A0E0B1E0EEE2F2E002C0F1
:1000800005900D92AA30B107D9F721E0AAE0B1E0BE
:1000900001C01D92A331B207E1F70E9459000C94F0
:1000A00015010C9400008FEF8AB984B18F6084B978
:1000B0000895F8940E9453000E94D10078940E9401
:1000C000E20082ED94E090930D0180930C01809109
:1000D0000C0190910D0128EE33E0B9010E94ED0072
:1000E000EFE0F1E0608380910C0190910D01B90186
:1000F0000E94ED0024E630E0B9010E94ED0061832A
:1001000080910C0190910D01B9010E94ED002AE04F
:1001100030E0B9010E94ED00628380910C01909162
:100120000D01B9010E94ED00838320910A013091F5
:100130000B0181E090E002C0880F991F2A95E2F739
:10014000809585B9E0910A01F0910B01E15FFE4FC6
:10015000E081F0E0E050FF4F80818BB9B2CF1F9279
:100160000F920FB60F9211248F939F9380910A01E3
:1001700090910B0103972CF010920B0110920A0141
:1001800009C080910A0190910B01019690930B0197
:1001900080930A019F918F910F900FBE0F901F9037
:1001A000189584B58E7F84BD84B5826084BD85B585
:1001B000877F85BD8AE287BDEEE6F0E080818260C0
:1001C0008083089516BC85B5816085BD85B58D7F1A
:1001D00085BD85B5846085BD089597FB072E16F40F
:1001E000009407D077FD09D00E94010107FC05D0DB
:1001F0003EF4909581959F4F0895709561957F4F3E
:100200000895AA1BBB1B51E107C0AA1FBB1FA6175D
:10021000B70710F0A61BB70B881F991F5A95A9F7AF
:0E02200080959095BC01CD010895F894FFCF14
:0A022E00FC60DAF266B6BEE0FEE600
:00000001FF
