:100000000C9434000C9446000C9446000C9446006A
:100010000C9446000C9446000C9446000C94460048
:100020000C9446000C9446000C9446000C94460038
:100030000C9446000C9446000C9474000C944600FA
:100040000C9446000C9446000C9446000C94460018
:100050000C9446000C9446000C9446000C94460008
:100060000C9446000C94460011241FBECFEFD8E03C
:10007000DEBFCDBF21E0A0E0B1E001C01D92A13004
:10008000B207E1F70E946B000C948F000C94000003
:1000900084B1816084B985B18E7F85B9089584B5B6
:1000A0008E7F84BD84B5826084BD85B5877F85BD24
:1000B00081E687BDEEE6F0E080818260808308956E
:1000C00016BC85B5816085BD85B58D7F85BD85B53F
:1000D000846085BD0895F8940E9448000E944F00F6
:1000E0000E9460007894FFCF1F920F920FB60F927C
:1000F00011248F939F93809100018F5F8093000163
:100100008A3030F095B181E0892785B910920001DD
:100110009F918F910F900FBE0F901F901895F8949C
:02012000FFCF0F
:00000001FF
