S01C0000496E746572727570745F4354435F54696D6572312E7372656371
S11300000C9434000C943E000C943E000C943E007E
S11300100C943E000C943E000C943E000C943E0064
S11300200C943E000C943E000C943E000C947C0016
S11300300C943E000C943E000C943E000C943E0044
S11300400C943E000C943E000C943E000C943E0034
S11300500C943E000C943E000C943E000C943E0024
S11300600C943E000C943E0011241FBECFEFD8E048
S1130070DEBFCDBF0E9473000C948E000C94000070
S113008084B1816084B985B1816085B90895E0E85F
S1130090F0E080818E7F808380818D7F8083E1E8A2
S11300A0F0E080818860808380818F7E808381EE10
S11300B094EE9093890080938800EFE6F0E08081CD
S11300C08260808308951092850010928400E1E894
S11300D0F0E080818160808380818D7F8083808156
S11300E0846080830895F8940E9440000E94470031
S11300F00E9463007894FFCF1F920F920FB60F9265
S113010011248F939F9395B181E0892785B99F919D
S11301108F910F900FBE0F901F901895F894FFCFFA
S9030000FC
