S00D0000456A5F30332E73726563A6
S11300000C9434000C943E000C943E000C943E007E
S11300100C943E000C943E000C943E000C943E0064
S11300200C943E000C943E000C943E000C943E0054
S11300300C943E000C943E000C943E000C943E0044
S11300400C943E000C943E000C943E000C943E0034
S11300500C943E000C943E000C943E000C943E0024
S11300600C943E000C943E0011241FBECFEFD8E048
S1130070DEBFCDBF0E9459000C9492000C94000086
S11300808AB1887F8AB98BB187608BB98AB1877C42
S11300908AB985B1877C85B984B1876084B985B113
S11300A0887F85B984B1886384B985B1886385B94B
S11300B008950E944000489904C085B1816085B9C3
S11300C003C085B18E7F85B9499904C085B182602A
S11300D085B903C085B18D7F85B94A9904C085B1BE
S11300E0846085B903C085B18B7F85B94B9904C001
S11300F085B1886085B903C085B1877F85B94C997E
S113010004C085B1806185B903C085B18F7E85B98E
S11301104D9904C085B1806285B9CDCF85B18F7DFD
S10B012085B9C9CFF894FFCFA3
S9030000FC
