S00E000030395F4144432E7372656386
S11300000C9434000C9446000C9446000C94460066
S11300100C9446000C9446000C9446000C94460044
S11300200C9446000C9446000C9446000C94460034
S11300300C9446000C9446000C9446000C94460024
S11300400C9446000C9446000C9446000C94460014
S11300500C9446000C94AB000C9446000C9446009F
S11300600C9446000C94460011241FBECFEFD8E038
S1130070DEBFCDBF21E0A0E0B1E001C01D92A430FD
S1130080B207E1F70E9484000C94E8000C9400008D
S11300908FEF84B915B80895ECE7F0E080818F778D
S11300A0808380818064808380818062808380817A
S11300B0877F808380818460808380818D7F80833B
S11300C080818E7F8083EAE7F0E080818062808394
S11300D080818860808380818B7F8083808182603F
S11300E080838081816080830895EAE7F0E08081E5
S11300F08068808383EC99E00197F1F700C00000E9
S11301008081806480830895F8940E9448000E944E
S11301104C0078940E9475008091020185B98FE4A7
S113012093EC0197F1F700C00000809100019091D9
S113013001019C01220F331F220F331F220F331F93
S1130140820F931F6FEF70E00E94C0007093030151
S113015060930201E1CF1F920F920FB60F92112408
S11301608F939F938091790090E090930101809305
S113017000019F918F910F900FBE0F901F901895C3
S113018097FB072E16F4009407D077FD09D00E9440
S1130190D40007FC05D03EF4909581959F4F0895B7
S11301A0709561957F4F0895AA1BBB1B51E107C051
S11301B0AA1FBB1FA617B70710F0A61BB70B881FF3
S11301C0991F5A95A9F780959095BC01CD01089582
S10701D0F894FFCFCD
S9030000FC
