:100000000C9434000C9446000C9446000C9446006A
:100010000C9446000C9446000C9446000C94460048
:100020000C9446000C9446000C9446000C94460038
:100030000C9446000C9446000C9446000C94460028
:100040000C9446000C9446000C9446000C94460018
:100050000C9446000C9446000C9446000C94460008
:100060000C9446000C94460011241FBECFEFD8E03C
:10007000DEBFCDBF21E0A0E0B1E001C01D92A13004
:10008000B207E1F70E9464000C9480000C94000019
:1000900084B1816084B985B18E7F85B9089584B5B6
:1000A0008E7F84BD84B58D7F84BD85B5877F85BDFA
:1000B000089516BC85B5816085BD85B58D7F85BDEC
:1000C00085B5846085BD0895F8940E9448000E941B
:1000D0004F000E945900789486B58136E9F78091E7
:1000E00000018F5F8093000116BC80910001853074
:1000F00099F795B181E0892785B910920001ECCF7D
:04010000F894FFCFA1
:00000001FF
