S00E000030395F4144432E7372656386
S11300000C9434000C9449000C9449000C9449005D
S11300100C9449000C9449000C9449000C94490038
S11300200C9449000C9449000C9449000C94490028
S11300300C9449000C9449000C9449000C94490018
S11300400C9449000C9449000C9449000C94490008
S11300500C9449000C9490000C9449000C944900B1
S11300600C9449000C94490011241FBECFEFD8E032
S1130070DEBFCDBF11E0A0E0B1E0E2E8F1E002C0F4
S113008005900D92AA30B107D9F70E9487000C940D
S1130090BF000C9400008FEF8AB91BB80895ECE7F9
S11300A0F0E080818F77808380818F7B8083808163
S11300B0806280838081877F808380818460808365
S11300C080818D7F808380818E7F8083EAE7F0E06A
S11300D080818062808380818860808380818B7F3F
S11300E080838081826080838081816080830895A1
S11300F0EAE7F0E080818068808383EC99E00197EF
S1130100F1F700C000008081806480830895F89432
S11301100E944B000E944F0078940E947800FFCF09
S11301201F920F920FB60F9211248F93EF93FF93A8
S1130130E9E7F0E080818081803420F4809100013F
S11301408BB915C080917900803440F0809179009A
S1130150882324F0809101018BB909C08091790032
S113016088232CF480917900809102018BB9FF914E
S1130170EF918F910F900FBE0F901F901895F894E8
S1050180FFCFAB
S10D01827E306D79335B5F707F738C
S9030000FC
