:100000000C9434000C943E000C943E000C943E0082
:100010000C943E000C943E000C943E000C943E0068
:100020000C943E000C943E000C943E000C943E0058
:100030000C943E000C943E000C943E000C943E0048
:100040000C943E000C943E000C943E000C943E0038
:100050000C943E000C943E000C943E000C943E0028
:100060000C943E000C943E0011241FBECFEFD8E04C
:10007000DEBFCDBF0E944A000C94B7000C94000074
:100080008AB18F708AB98AB18F608AB98FEF84B9CB
:1000900015B808950E9440008EE785B981E08BB9BC
:1000A000489B04C04C9B02C080E785B9489B04C0B4
:1000B0004D9B02C08FE785B9489B04C04E9B02C090
:1000C00083E785B9489B04C04F9B02C087E785B989
:1000D00082E08BB9499B04C04C9B02C083E385B985
:1000E000499B04C04D9B02C08BE585B9499B04C068
:1000F0004E9B02C08FE585B9499B04C04F9B02C04F
:100100008FE185B984E08BB94A9B04C04C9B02C047
:1001100080E385B94A9B04C04D9B02C08DE685B93A
:100120004A9B04C04E9B02C089E785B94A9B04C024
:100130004F9B02C08EE485B988E08BB94B9B04C00D
:100140004C9B02C08DE385B94B9B04C04D9B02C004
:100150008EE785B94B9B04C04E9B02C08FE485B9E6
:100160004B9B9CCF4F9B9ACF87E485B997CFF89450
:02017000FFCFBF
:00000001FF
