S00E000030395F4144432E7372656386
S11300000C9434000C943E000C943E000C943E007E
S11300100C943E000C943E000C943E000C943E0064
S11300200C943E000C943E000C943E000C943E0054
S11300300C943E000C943E000C943E000C943E0044
S11300400C943E000C943E000C943E000C943E0034
S11300500C943E000C9485000C943E000C943E00DD
S11300600C943E000C943E0011241FBECFEFD8E048
S1130070DEBFCDBF0E947C000C94A5000C94000050
S11300808FEF8AB91BB80895ECE7F0E080818F7791
S1130090808380818064808380818062808380818A
S11300A0877F808380818460808380818D7F80834B
S11300B080818E7F8083EAE7F0E0808180628083A4
S11300C080818860808380818B7F8083808182604F
S11300D080838081816080830895EAE7F0E08081F5
S11300E08068808383EC99E00197F1F700C00000F9
S11300F08081806480830895F8940E9440000E9467
S1130100440078940E946D00FFCF1F920F920FB6A7
S11301100F9211248F93EF93FF93E9E7F0E080812E
S11301208081882314F08FE08BB980917900882333
S113013024F48091790080EF8BB9FF91EF918F9136
S11101400F900FBE0F901F901895F894FFCFEC
S9030000FC
